{
  "contractName": "LoopTokenSale",
  "abi": [
    {
      "inputs": [
        {
          "internalType": "contract LoopToken",
          "name": "_tokenContract",
          "type": "address"
        },
        {
          "internalType": "uint256",
          "name": "_tokenPrice",
          "type": "uint256"
        },
        {
          "internalType": "int256",
          "name": "_Math",
          "type": "int256"
        }
      ],
      "stateMutability": "nonpayable",
      "type": "constructor"
    },
    {
      "anonymous": false,
      "inputs": [
        {
          "indexed": true,
          "internalType": "address",
          "name": "_buyer",
          "type": "address"
        },
        {
          "indexed": false,
          "internalType": "uint256",
          "name": "_amount",
          "type": "uint256"
        }
      ],
      "name": "Sell",
      "type": "event"
    },
    {
      "inputs": [],
      "name": "Mathtoken",
      "outputs": [
        {
          "internalType": "int256",
          "name": "",
          "type": "int256"
        }
      ],
      "stateMutability": "view",
      "type": "function"
    },
    {
      "inputs": [],
      "name": "tokenContract",
      "outputs": [
        {
          "internalType": "contract LoopToken",
          "name": "",
          "type": "address"
        }
      ],
      "stateMutability": "view",
      "type": "function"
    },
    {
      "inputs": [],
      "name": "tokenPrice",
      "outputs": [
        {
          "internalType": "uint256",
          "name": "",
          "type": "uint256"
        }
      ],
      "stateMutability": "view",
      "type": "function"
    },
    {
      "inputs": [],
      "name": "tokenSold",
      "outputs": [
        {
          "internalType": "uint256",
          "name": "",
          "type": "uint256"
        }
      ],
      "stateMutability": "view",
      "type": "function"
    },
    {
      "inputs": [
        {
          "internalType": "uint256",
          "name": "_numberOfToken",
          "type": "uint256"
        }
      ],
      "name": "buyToken",
      "outputs": [],
      "stateMutability": "payable",
      "type": "function"
    },
    {
      "inputs": [],
      "name": "usdPrice",
      "outputs": [
        {
          "internalType": "int256",
          "name": "",
          "type": "int256"
        }
      ],
      "stateMutability": "view",
      "type": "function"
    },
    {
      "inputs": [],
      "name": "endSale",
      "outputs": [],
      "stateMutability": "nonpayable",
      "type": "function"
    }
  ],
  "bytecode": "0x608060405234801561001057600080fd5b506040516108ca3803806108ca83398101604081905261002f9161008b565b600080546001600160a01b03199081163317909155600180546001600160a01b03959095169482169490941790935560029190915560045560058054909116738a753747a1fa494ec906ce90e9f37563a8af630e1790556100cc565b60008060006060848603121561009f578283fd5b83516001600160a01b03811681146100b5578384fd5b602085015160409095015190969495509392505050565b6107ef806100db6000396000f3fe6080604052600436106100705760003560e01c8063519ee19e1161004e578063519ee19e146100ca57806355a373d6146100df5780636619aa86146101015780637ff9b5961461011657610070565b8063082775ec146100755780632d296bf1146100a0578063380d831b146100b5575b600080fd5b34801561008157600080fd5b5061008a61012b565b604051610097919061064d565b60405180910390f35b6100b36100ae3660046105a1565b610131565b005b3480156100c157600080fd5b506100b361033d565b3480156100d657600080fd5b5061008a61045c565b3480156100eb57600080fd5b506100f4610462565b6040516100979190610620565b34801561010d57600080fd5b5061008a610471565b34801561012257600080fd5b5061008a610522565b60045481565b61013d81600254610528565b34146101645760405162461bcd60e51b815260040161015b906106ea565b60405180910390fd5b6001546040516370a0823160e01b815282916001600160a01b0316906370a0823190610194903090600401610620565b60206040518083038186803b1580156101ac57600080fd5b505afa1580156101c0573d6000803e3d6000fd5b505050506040513d601f19601f820116820180604052508101906101e491906105b9565b10156102025760405162461bcd60e51b815260040161015b906106b3565b60015460405163a9059cbb60e01b81526001600160a01b039091169063a9059cbb906102349033908590600401610634565b602060405180830381600087803b15801561024e57600080fd5b505af1158015610262573d6000803e3d6000fd5b505050506040513d601f19601f82011682018060405250810190610286919061057a565b6102a25760405162461bcd60e51b815260040161015b90610685565b620c350060035411156102c75760405162461bcd60e51b815260040161015b90610656565b80600360008282546102d99190610714565b9091555050600354620c3500101561030157634e487b7160e01b600052600160045260246000fd5b7f5e5e995ce3133561afceaa51a9a154d5db228cd7525d34df5185582c18d3df093382604051610332929190610634565b60405180910390a150565b6000546001600160a01b0316331461035457600080fd5b6001546000546040516370a0823160e01b81526001600160a01b039283169263a9059cbb92169083906370a0823190610391903090600401610620565b60206040518083038186803b1580156103a957600080fd5b505afa1580156103bd573d6000803e3d6000fd5b505050506040513d601f19601f820116820180604052508101906103e191906105b9565b6040518363ffffffff1660e01b81526004016103fe929190610634565b602060405180830381600087803b15801561041857600080fd5b505af115801561042c573d6000803e3d6000fd5b505050506040513d601f19601f82011682018060405250810190610450919061057a565b61045957600080fd5b33ff5b60035481565b6001546001600160a01b031681565b600080600080600080600560009054906101000a90046001600160a01b03166001600160a01b031663feaf968c6040518163ffffffff1660e01b815260040160a06040518083038186803b1580156104c857600080fd5b505afa1580156104dc573d6000803e3d6000fd5b505050506040513d601f19601f8201168201806040525081019061050091906105d1565b9450945094509450945060045484610518919061072c565b9550505050505090565b60025481565b600081158061054c5750828261053e818361076e565b925061054a908361075a565b145b61055557600080fd5b92915050565b805169ffffffffffffffffffff8116811461057557600080fd5b919050565b60006020828403121561058b578081fd5b8151801515811461059a578182fd5b9392505050565b6000602082840312156105b2578081fd5b5035919050565b6000602082840312156105ca578081fd5b5051919050565b600080600080600060a086880312156105e8578081fd5b6105f18661055b565b94506020860151935060408601519250606086015191506106146080870161055b565b90509295509295909350565b6001600160a01b0391909116815260200190565b6001600160a01b03929092168252602082015260400190565b90815260200190565b60208082526015908201527431b432b1b5903a37b5b2b729b7b632103132b337b960591b604082015260600190565b60208082526014908201527331b432b1b5903a3930b739b332b9103a37b5b2b760611b604082015260600190565b60208082526019908201527f636865636b2062616c616e6365204f6620436f6e747261637400000000000000604082015260600190565b60208082526010908201526f18da1958dac81d985b1d59481cd95b9960821b604082015260600190565b600082198211156107275761072761078d565b500190565b60008261073b5761073b6107a3565b600160ff1b8214600019841416156107555761075561078d565b500590565b600082610769576107696107a3565b500490565b60008160001904831182151516156107885761078861078d565b500290565b634e487b7160e01b600052601160045260246000fd5b634e487b7160e01b600052601260045260246000fdfea264697066735822122003f9321a8dca94a8cd74124a18309b849a839a62aebb7414b72d8c28dfe8174064736f6c63430008000033",
  "immutableReferences": {},
  "source": "// SPDX-License-Identifier: MIT\r\npragma solidity >=0.6.0 <0.9.0;\r\n\r\nimport \"./LoopToken.sol\";\r\nimport \"@chainlink/contracts/src/v0.8/interfaces/AggregatorV3Interface.sol\";\r\n\r\ncontract LoopTokenSale {\r\n    address Admin;\r\n    LoopToken public tokenContract;\r\n    uint256 public tokenPrice;\r\n    uint256 public tokenSold;\r\n    int256 public Mathtoken;\r\n    AggregatorV3Interface internal priceFeed;\r\n\r\n    event Sell(address _buyer, uint256 _amount);\r\n\r\n    constructor(\r\n        LoopToken _tokenContract,\r\n        uint256 _tokenPrice,\r\n        int256 _Math\r\n    ) {\r\n        Admin = msg.sender;\r\n        tokenContract = _tokenContract;\r\n        tokenPrice = _tokenPrice;\r\n        Mathtoken = _Math;\r\n        priceFeed = AggregatorV3Interface(\r\n            0x8A753747A1Fa494EC906cE90E9f37563A8AF630e\r\n        );\r\n    }\r\n\r\n    //multiply\r\n    function multiply(uint256 x, uint256 y) internal pure returns (uint256 z) {\r\n        require(y == 0 || (z = x * y) / y == x);\r\n    }\r\n\r\n    function buyToken(uint256 _numberOfToken) public payable {\r\n        require(\r\n            msg.value == multiply(_numberOfToken, tokenPrice),\r\n            \"check value send\"\r\n        );\r\n        require(\r\n            tokenContract.balanceOf(address(this)) >= _numberOfToken,\r\n            \"check balance Of Contract\"\r\n        );\r\n        require(\r\n            tokenContract.transfer(msg.sender, _numberOfToken),\r\n            \"check transfer token\"\r\n        );\r\n        require(tokenSold <= 800000, \"check tokenSold befor\");\r\n        tokenSold += _numberOfToken;\r\n        assert(tokenSold <= 800000);\r\n        emit Sell(msg.sender, _numberOfToken);\r\n    }\r\n\r\n    // eth price\r\n    function usdPrice() public view returns (int256) {\r\n        (\r\n            uint80 roundID,\r\n            int256 price,\r\n            uint256 startedAt,\r\n            uint256 timeStamp,\r\n            uint80 answeredInRound\r\n        ) = priceFeed.latestRoundData();\r\n        return (price / Mathtoken);\r\n    }\r\n\r\n    function endSale() public {\r\n        require(msg.sender == Admin);\r\n        require(\r\n            tokenContract.transfer(\r\n                Admin,\r\n                tokenContract.balanceOf(address(this))\r\n            )\r\n        );\r\n        //if want destoryed\r\n        //destoryed contract solidity above 0.6.0\r\n        selfdestruct(payable(msg.sender));\r\n        //destoryed contract solidity 0.4.0 to 0.5.17.\r\n        //selfdestruct(msg.sender);\r\n    }\r\n}\r\n",
  "sourcePath": "F:\\truffleWithReactApp\\StackApp\\truffle\\contracts\\LoopTokenSale.sol",
  "compiler": {
    "name": "solc",
    "version": "0.8.0+commit.c7dfd78e.Emscripten.clang"
  },
  "schemaVersion": "3.4.2",
  "updatedAt": "2021-09-25T09:21:00.609Z",
  "networkType": "ethereum",
  "devdoc": {
    "kind": "dev",
    "methods": {},
    "version": 1
  },
  "userdoc": {
    "kind": "user",
    "methods": {},
    "version": 1
  }
}