{
  "contractName": "LoopTokenSale",
  "abi": [
    {
      "inputs": [
        {
          "internalType": "contract LoopToken",
          "name": "_tokenContract",
          "type": "address"
        },
        {
          "internalType": "uint256",
          "name": "_tokenPrice",
          "type": "uint256"
        },
        {
          "internalType": "int256",
          "name": "_Math",
          "type": "int256"
        }
      ],
      "stateMutability": "nonpayable",
      "type": "constructor"
    },
    {
      "anonymous": false,
      "inputs": [
        {
          "indexed": false,
          "internalType": "address",
          "name": "_buyer",
          "type": "address"
        },
        {
          "indexed": false,
          "internalType": "uint256",
          "name": "_amount",
          "type": "uint256"
        }
      ],
      "name": "Sell",
      "type": "event"
    },
    {
      "inputs": [],
      "name": "Mathtoken",
      "outputs": [
        {
          "internalType": "int256",
          "name": "",
          "type": "int256"
        }
      ],
      "stateMutability": "view",
      "type": "function",
      "constant": true
    },
    {
      "inputs": [],
      "name": "tokenContract",
      "outputs": [
        {
          "internalType": "contract LoopToken",
          "name": "",
          "type": "address"
        }
      ],
      "stateMutability": "view",
      "type": "function",
      "constant": true
    },
    {
      "inputs": [],
      "name": "tokenPrice",
      "outputs": [
        {
          "internalType": "uint256",
          "name": "",
          "type": "uint256"
        }
      ],
      "stateMutability": "view",
      "type": "function",
      "constant": true
    },
    {
      "inputs": [],
      "name": "tokenSold",
      "outputs": [
        {
          "internalType": "uint256",
          "name": "",
          "type": "uint256"
        }
      ],
      "stateMutability": "view",
      "type": "function",
      "constant": true
    },
    {
      "inputs": [
        {
          "internalType": "uint256",
          "name": "_numberOfToken",
          "type": "uint256"
        }
      ],
      "name": "buyToken",
      "outputs": [],
      "stateMutability": "payable",
      "type": "function",
      "payable": true
    },
    {
      "inputs": [],
      "name": "usdPrice",
      "outputs": [
        {
          "internalType": "int256",
          "name": "",
          "type": "int256"
        }
      ],
      "stateMutability": "view",
      "type": "function",
      "constant": true
    },
    {
      "inputs": [],
      "name": "endSale",
      "outputs": [],
      "stateMutability": "nonpayable",
      "type": "function"
    }
  ],
  "bytecode": "0x608060405234801561001057600080fd5b506040516107b73803806107b783398101604081905261002f9161008b565b600080546001600160a01b03199081163317909155600180546001600160a01b03959095169482169490941790935560029190915560045560058054909116738a753747a1fa494ec906ce90e9f37563a8af630e1790556100cc565b60008060006060848603121561009f578283fd5b83516001600160a01b03811681146100b5578384fd5b602085015160409095015190969495509392505050565b6106dc806100db6000396000f3fe6080604052600436106100705760003560e01c8063519ee19e1161004e578063519ee19e146100ca57806355a373d6146100df5780636619aa86146101015780637ff9b5961461011657610070565b8063082775ec146100755780632d296bf1146100a0578063380d831b146100b5575b600080fd5b34801561008157600080fd5b5061008a61012b565b60405161009791906105f8565b60405180910390f35b6100b36100ae36600461054c565b610131565b005b3480156100c157600080fd5b506100b36102e8565b3480156100d657600080fd5b5061008a610407565b3480156100eb57600080fd5b506100f461040d565b60405161009791906105cb565b34801561010d57600080fd5b5061008a61041c565b34801561012257600080fd5b5061008a6104cd565b60045481565b61013d816002546104d3565b341461014857600080fd5b6001546040516370a0823160e01b815282916001600160a01b0316906370a08231906101789030906004016105cb565b60206040518083038186803b15801561019057600080fd5b505afa1580156101a4573d6000803e3d6000fd5b505050506040513d601f19601f820116820180604052508101906101c89190610564565b10156101d357600080fd5b60015460405163a9059cbb60e01b81526001600160a01b039091169063a9059cbb9061020590339085906004016105df565b602060405180830381600087803b15801561021f57600080fd5b505af1158015610233573d6000803e3d6000fd5b505050506040513d601f19601f820116820180604052508101906102579190610525565b61026057600080fd5b620c3500600354111561027257600080fd5b80600360008282546102849190610601565b9091555050600354620c350010156102ac57634e487b7160e01b600052600160045260246000fd5b7f5e5e995ce3133561afceaa51a9a154d5db228cd7525d34df5185582c18d3df0933826040516102dd9291906105df565b60405180910390a150565b6000546001600160a01b031633146102ff57600080fd5b6001546000546040516370a0823160e01b81526001600160a01b039283169263a9059cbb92169083906370a082319061033c9030906004016105cb565b60206040518083038186803b15801561035457600080fd5b505afa158015610368573d6000803e3d6000fd5b505050506040513d601f19601f8201168201806040525081019061038c9190610564565b6040518363ffffffff1660e01b81526004016103a99291906105df565b602060405180830381600087803b1580156103c357600080fd5b505af11580156103d7573d6000803e3d6000fd5b505050506040513d601f19601f820116820180604052508101906103fb9190610525565b61040457600080fd5b33ff5b60035481565b6001546001600160a01b031681565b600080600080600080600560009054906101000a90046001600160a01b03166001600160a01b031663feaf968c6040518163ffffffff1660e01b815260040160a06040518083038186803b15801561047357600080fd5b505afa158015610487573d6000803e3d6000fd5b505050506040513d601f19601f820116820180604052508101906104ab919061057c565b94509450945094509450600454846104c39190610619565b9550505050505090565b60025481565b60008115806104f7575082826104e9818361065b565b92506104f59083610647565b145b61050057600080fd5b92915050565b805169ffffffffffffffffffff8116811461052057600080fd5b919050565b600060208284031215610536578081fd5b81518015158114610545578182fd5b9392505050565b60006020828403121561055d578081fd5b5035919050565b600060208284031215610575578081fd5b5051919050565b600080600080600060a08688031215610593578081fd5b61059c86610506565b94506020860151935060408601519250606086015191506105bf60808701610506565b90509295509295909350565b6001600160a01b0391909116815260200190565b6001600160a01b03929092168252602082015260400190565b90815260200190565b600082198211156106145761061461067a565b500190565b60008261062857610628610690565b600160ff1b8214600019841416156106425761064261067a565b500590565b60008261065657610656610690565b500490565b60008160001904831182151516156106755761067561067a565b500290565b634e487b7160e01b600052601160045260246000fd5b634e487b7160e01b600052601260045260246000fdfea2646970667358221220fdbe200d4ee32c153ff124dacf9b8ab267135536bff7980dfb66768e163a089d64736f6c63430008000033",
  "immutableReferences": {},
  "source": "// SPDX-License-Identifier: MIT\r\npragma solidity >=0.6.0 <0.9.0;\r\n\r\nimport \"./LoopToken.sol\";\r\nimport \"@chainlink/contracts/src/v0.8/interfaces/AggregatorV3Interface.sol\";\r\n\r\ncontract LoopTokenSale {\r\n    address admin;\r\n    LoopToken public tokenContract;\r\n    uint256 public tokenPrice;\r\n    uint256 public tokenSold;\r\n    int256 public Mathtoken;\r\n    AggregatorV3Interface internal priceFeed;\r\n\r\n    event Sell(address _buyer, uint256 _amount);\r\n\r\n    constructor(\r\n        LoopToken _tokenContract,\r\n        uint256 _tokenPrice,\r\n        int256 _Math\r\n    ) {\r\n        admin = msg.sender;\r\n        tokenContract = _tokenContract;\r\n        tokenPrice = _tokenPrice;\r\n        Mathtoken = _Math;\r\n        priceFeed = AggregatorV3Interface(\r\n            0x8A753747A1Fa494EC906cE90E9f37563A8AF630e\r\n        );\r\n    }\r\n\r\n    //multiply\r\n    function multiply(uint256 x, uint256 y) internal pure returns (uint256 z) {\r\n        require(y == 0 || (z = x * y) / y == x);\r\n    }\r\n\r\n    function buyToken(uint256 _numberOfToken) public payable {\r\n        require(msg.value == multiply(_numberOfToken, tokenPrice));\r\n        require(tokenContract.balanceOf(address(this)) >= _numberOfToken);\r\n        require(tokenContract.transfer(msg.sender, _numberOfToken));\r\n        require(tokenSold <= 800000);\r\n        tokenSold += _numberOfToken;\r\n        assert(tokenSold <= 800000);\r\n        emit Sell(msg.sender, _numberOfToken);\r\n    }\r\n\r\n    // eth price\r\n    function usdPrice() public view returns (int256) {\r\n        (\r\n            uint80 roundID,\r\n            int256 price,\r\n            uint256 startedAt,\r\n            uint256 timeStamp,\r\n            uint80 answeredInRound\r\n        ) = priceFeed.latestRoundData();\r\n        return (price / Mathtoken);\r\n    }\r\n\r\n    function endSale() public {\r\n        require(msg.sender == admin);\r\n        require(\r\n            tokenContract.transfer(\r\n                admin,\r\n                tokenContract.balanceOf(address(this))\r\n            )\r\n        );\r\n        //if want destoryed\r\n        //destoryed contract solidity above 0.6.0\r\n        selfdestruct(payable(msg.sender));\r\n        //destoryed contract solidity 0.4.0 to 0.5.17.\r\n        //selfdestruct(msg.sender);\r\n    }\r\n}\r\n",
  "sourcePath": "F:\\truffleWithReactApp\\StackApp\\Truffle\\contracts\\LoopTokenSale.sol",
  "compiler": {
    "name": "solc",
    "version": "0.8.0+commit.c7dfd78e.Emscripten.clang"
  },
  "schemaVersion": "3.4.2",
  "updatedAt": "2021-09-19T05:39:39.797Z",
  "networkType": "ethereum",
  "devdoc": {
    "kind": "dev",
    "methods": {},
    "version": 1
  },
  "userdoc": {
    "kind": "user",
    "methods": {},
    "version": 1
  }
}