{
  "contractName": "LoopTokenSale",
  "abi": [
    {
      "inputs": [
        {
          "internalType": "contract LoopToken",
          "name": "_tokenContract",
          "type": "address"
        },
        {
          "internalType": "uint256",
          "name": "_tokenPrice",
          "type": "uint256"
        }
      ],
      "stateMutability": "nonpayable",
      "type": "constructor"
    },
    {
      "anonymous": false,
      "inputs": [
        {
          "indexed": false,
          "internalType": "address",
          "name": "_buyer",
          "type": "address"
        },
        {
          "indexed": false,
          "internalType": "uint256",
          "name": "_amount",
          "type": "uint256"
        }
      ],
      "name": "Sell",
      "type": "event"
    },
    {
      "inputs": [],
      "name": "tokenContract",
      "outputs": [
        {
          "internalType": "contract LoopToken",
          "name": "",
          "type": "address"
        }
      ],
      "stateMutability": "view",
      "type": "function",
      "constant": true
    },
    {
      "inputs": [],
      "name": "tokenPrice",
      "outputs": [
        {
          "internalType": "uint256",
          "name": "",
          "type": "uint256"
        }
      ],
      "stateMutability": "view",
      "type": "function",
      "constant": true
    },
    {
      "inputs": [],
      "name": "tokenSold",
      "outputs": [
        {
          "internalType": "uint256",
          "name": "",
          "type": "uint256"
        }
      ],
      "stateMutability": "view",
      "type": "function",
      "constant": true
    },
    {
      "inputs": [
        {
          "internalType": "uint256",
          "name": "_numberOfToken",
          "type": "uint256"
        }
      ],
      "name": "buyToken",
      "outputs": [],
      "stateMutability": "payable",
      "type": "function",
      "payable": true
    },
    {
      "inputs": [],
      "name": "endSale",
      "outputs": [],
      "stateMutability": "nonpayable",
      "type": "function"
    }
  ],
  "bytecode": "0x608060405234801561001057600080fd5b506040516105a83803806105a883398101604081905261002f91610066565b60008054336001600160a01b031991821617909155600180549091166001600160a01b03939093169290921790915560025561009e565b60008060408385031215610078578182fd5b82516001600160a01b038116811461008e578283fd5b6020939093015192949293505050565b6104fb806100ad6000396000f3fe60806040526004361061004a5760003560e01c80632d296bf11461004f578063380d831b14610064578063519ee19e1461007957806355a373d6146100a45780637ff9b596146100c6575b600080fd5b61006261005d3660046103f2565b6100db565b005b34801561007057600080fd5b5061006261025e565b34801561008557600080fd5b5061008e61037d565b60405161009b919061044f565b60405180910390f35b3480156100b057600080fd5b506100b9610383565b60405161009b9190610422565b3480156100d257600080fd5b5061008e610392565b6100e781600254610398565b34146100f257600080fd5b6001546040516370a0823160e01b815282916001600160a01b0316906370a0823190610122903090600401610422565b60206040518083038186803b15801561013a57600080fd5b505afa15801561014e573d6000803e3d6000fd5b505050506040513d601f19601f82011682018060405250810190610172919061040a565b101561017d57600080fd5b60015460405163a9059cbb60e01b81526001600160a01b039091169063a9059cbb906101af9033908590600401610436565b602060405180830381600087803b1580156101c957600080fd5b505af11580156101dd573d6000803e3d6000fd5b505050506040513d601f19601f8201168201806040525081019061020191906103cb565b61020a57600080fd5b806003600082825461021c9190610458565b90915550506040517f5e5e995ce3133561afceaa51a9a154d5db228cd7525d34df5185582c18d3df09906102539033908490610436565b60405180910390a150565b6000546001600160a01b0316331461027557600080fd5b6001546000546040516370a0823160e01b81526001600160a01b039283169263a9059cbb92169083906370a08231906102b2903090600401610422565b60206040518083038186803b1580156102ca57600080fd5b505afa1580156102de573d6000803e3d6000fd5b505050506040513d601f19601f82011682018060405250810190610302919061040a565b6040518363ffffffff1660e01b815260040161031f929190610436565b602060405180830381600087803b15801561033957600080fd5b505af115801561034d573d6000803e3d6000fd5b505050506040513d601f19601f8201168201806040525081019061037191906103cb565b61037a57600080fd5b33ff5b60035481565b6001546001600160a01b031681565b60025481565b60008115806103bc575082826103ae8183610490565b92506103ba9083610470565b145b6103c557600080fd5b92915050565b6000602082840312156103dc578081fd5b815180151581146103eb578182fd5b9392505050565b600060208284031215610403578081fd5b5035919050565b60006020828403121561041b578081fd5b5051919050565b6001600160a01b0391909116815260200190565b6001600160a01b03929092168252602082015260400190565b90815260200190565b6000821982111561046b5761046b6104af565b500190565b60008261048b57634e487b7160e01b81526012600452602481fd5b500490565b60008160001904831182151516156104aa576104aa6104af565b500290565b634e487b7160e01b600052601160045260246000fdfea2646970667358221220869bfb8d43397defeb3408f36824d8060d9270a5de4104ae21a377caf2ca8d2164736f6c63430008000033",
  "immutableReferences": {},
  "source": "// SPDX-License-Identifier: MIT\r\npragma solidity >=0.6.0 <0.9.0;\r\n\r\nimport \"./LoopToken.sol\";\r\n\r\ncontract LoopTokenSale {\r\n    address admin;\r\n    LoopToken public tokenContract;\r\n    uint256 public tokenPrice;\r\n    uint256 public tokenSold;\r\n\r\n    event Sell(address _buyer, uint256 _amount);\r\n\r\n    constructor(LoopToken _tokenContract, uint256 _tokenPrice) {\r\n        admin = msg.sender;\r\n        tokenContract = _tokenContract;\r\n        tokenPrice = _tokenPrice;\r\n    }\r\n\r\n    //multiply\r\n    function multiply(uint256 x, uint256 y) internal pure returns (uint256 z) {\r\n        require(y == 0 || (z = x * y) / y == x);\r\n    }\r\n\r\n    function buyToken(uint256 _numberOfToken) public payable {\r\n        require(msg.value == multiply(_numberOfToken, tokenPrice));\r\n        require(tokenContract.balanceOf(address(this)) >= _numberOfToken);\r\n        require(tokenContract.transfer(msg.sender, _numberOfToken));\r\n        tokenSold += _numberOfToken;\r\n        emit Sell(msg.sender, _numberOfToken);\r\n    }\r\n\r\n    function endSale() public {\r\n        require(msg.sender == admin);\r\n        require(\r\n            tokenContract.transfer(\r\n                admin,\r\n                tokenContract.balanceOf(address(this))\r\n            )\r\n        );\r\n        //if want destoryed\r\n        //destoryed contract solidity above 0.6.0\r\n        selfdestruct(payable(msg.sender));\r\n        //destoryed contract solidity 0.4.0 to 0.5.17.\r\n        //selfdestruct(msg.sender);\r\n    }\r\n}\r\n",
  "sourcePath": "F:\\truffleWithReactApp\\StackApp\\Truffle\\contracts\\LoopTokenSale.sol",
  "compiler": {
    "name": "solc",
    "version": "0.8.0+commit.c7dfd78e.Emscripten.clang"
  },
  "schemaVersion": "3.4.2",
  "updatedAt": "2021-09-06T12:20:50.941Z",
  "networkType": "ethereum",
  "devdoc": {
    "kind": "dev",
    "methods": {},
    "version": 1
  },
  "userdoc": {
    "kind": "user",
    "methods": {},
    "version": 1
  }
}