{
  "contractName": "Products",
  "abi": [
    {
      "inputs": [],
      "stateMutability": "nonpayable",
      "type": "constructor"
    },
    {
      "anonymous": false,
      "inputs": [
        {
          "indexed": true,
          "internalType": "address",
          "name": "_owner",
          "type": "address"
        },
        {
          "indexed": true,
          "internalType": "address",
          "name": "_spender",
          "type": "address"
        },
        {
          "indexed": false,
          "internalType": "uint256",
          "name": "_value",
          "type": "uint256"
        }
      ],
      "name": "Approval",
      "type": "event"
    },
    {
      "anonymous": false,
      "inputs": [
        {
          "indexed": true,
          "internalType": "address",
          "name": "_from",
          "type": "address"
        },
        {
          "indexed": true,
          "internalType": "address",
          "name": "_to",
          "type": "address"
        },
        {
          "indexed": false,
          "internalType": "uint256",
          "name": "_value",
          "type": "uint256"
        }
      ],
      "name": "Transfer",
      "type": "event"
    },
    {
      "anonymous": false,
      "inputs": [
        {
          "indexed": true,
          "internalType": "address",
          "name": "_from",
          "type": "address"
        },
        {
          "indexed": true,
          "internalType": "address",
          "name": "_to",
          "type": "address"
        },
        {
          "indexed": false,
          "internalType": "uint256",
          "name": "_value",
          "type": "uint256"
        }
      ],
      "name": "TransferFrom",
      "type": "event"
    },
    {
      "anonymous": false,
      "inputs": [
        {
          "indexed": false,
          "internalType": "uint32",
          "name": "Id",
          "type": "uint32"
        },
        {
          "indexed": false,
          "internalType": "address",
          "name": "Owner",
          "type": "address"
        },
        {
          "indexed": false,
          "internalType": "string",
          "name": "ProductName",
          "type": "string"
        },
        {
          "indexed": false,
          "internalType": "string",
          "name": "descriptors",
          "type": "string"
        },
        {
          "indexed": false,
          "internalType": "string",
          "name": "ImgUrl",
          "type": "string"
        },
        {
          "indexed": false,
          "internalType": "uint56",
          "name": "Price",
          "type": "uint56"
        },
        {
          "indexed": false,
          "internalType": "bool",
          "name": "SellAble",
          "type": "bool"
        }
      ],
      "name": "_AddProducts",
      "type": "event"
    },
    {
      "anonymous": false,
      "inputs": [
        {
          "indexed": false,
          "internalType": "address",
          "name": "Seller",
          "type": "address"
        },
        {
          "indexed": false,
          "internalType": "uint32",
          "name": "Id",
          "type": "uint32"
        },
        {
          "indexed": false,
          "internalType": "address",
          "name": "Buyer",
          "type": "address"
        },
        {
          "indexed": false,
          "internalType": "string",
          "name": "ProductName",
          "type": "string"
        },
        {
          "indexed": false,
          "internalType": "string",
          "name": "descriptors",
          "type": "string"
        },
        {
          "indexed": false,
          "internalType": "string",
          "name": "ImgUrl",
          "type": "string"
        },
        {
          "indexed": false,
          "internalType": "uint56",
          "name": "Price",
          "type": "uint56"
        },
        {
          "indexed": false,
          "internalType": "bool",
          "name": "SellAble",
          "type": "bool"
        }
      ],
      "name": "_BuyProduct",
      "type": "event"
    },
    {
      "anonymous": false,
      "inputs": [
        {
          "indexed": false,
          "internalType": "uint32",
          "name": "Id",
          "type": "uint32"
        },
        {
          "indexed": false,
          "internalType": "address",
          "name": "Owner",
          "type": "address"
        },
        {
          "indexed": false,
          "internalType": "string",
          "name": "ProductName",
          "type": "string"
        },
        {
          "indexed": false,
          "internalType": "string",
          "name": "descriptors",
          "type": "string"
        },
        {
          "indexed": false,
          "internalType": "string",
          "name": "ImgUrl",
          "type": "string"
        },
        {
          "indexed": false,
          "internalType": "uint56",
          "name": "Price",
          "type": "uint56"
        },
        {
          "indexed": false,
          "internalType": "bool",
          "name": "SellAble",
          "type": "bool"
        }
      ],
      "name": "_ChangeProduct",
      "type": "event"
    },
    {
      "anonymous": false,
      "inputs": [
        {
          "indexed": false,
          "internalType": "uint32",
          "name": "Id",
          "type": "uint32"
        },
        {
          "indexed": false,
          "internalType": "address",
          "name": "Owner",
          "type": "address"
        }
      ],
      "name": "_DeleteProduct",
      "type": "event"
    },
    {
      "inputs": [],
      "name": "Count",
      "outputs": [
        {
          "internalType": "uint32",
          "name": "",
          "type": "uint32"
        }
      ],
      "stateMutability": "view",
      "type": "function"
    },
    {
      "inputs": [
        {
          "internalType": "address",
          "name": "",
          "type": "address"
        },
        {
          "internalType": "address",
          "name": "",
          "type": "address"
        }
      ],
      "name": "allowance",
      "outputs": [
        {
          "internalType": "uint256",
          "name": "",
          "type": "uint256"
        }
      ],
      "stateMutability": "view",
      "type": "function"
    },
    {
      "inputs": [
        {
          "internalType": "address",
          "name": "_spender",
          "type": "address"
        },
        {
          "internalType": "uint256",
          "name": "_value",
          "type": "uint256"
        }
      ],
      "name": "approve",
      "outputs": [
        {
          "internalType": "bool",
          "name": "success",
          "type": "bool"
        }
      ],
      "stateMutability": "nonpayable",
      "type": "function"
    },
    {
      "inputs": [
        {
          "internalType": "address",
          "name": "",
          "type": "address"
        }
      ],
      "name": "balanceOf",
      "outputs": [
        {
          "internalType": "uint256",
          "name": "",
          "type": "uint256"
        }
      ],
      "stateMutability": "view",
      "type": "function"
    },
    {
      "inputs": [
        {
          "internalType": "uint32",
          "name": "",
          "type": "uint32"
        }
      ],
      "name": "items",
      "outputs": [
        {
          "internalType": "uint32",
          "name": "Id",
          "type": "uint32"
        },
        {
          "internalType": "address",
          "name": "Owner",
          "type": "address"
        },
        {
          "internalType": "string",
          "name": "ProductName",
          "type": "string"
        },
        {
          "internalType": "string",
          "name": "descriptors",
          "type": "string"
        },
        {
          "internalType": "string",
          "name": "ImgUrl",
          "type": "string"
        },
        {
          "internalType": "uint56",
          "name": "Price",
          "type": "uint56"
        },
        {
          "internalType": "bool",
          "name": "SellAble",
          "type": "bool"
        }
      ],
      "stateMutability": "view",
      "type": "function"
    },
    {
      "inputs": [],
      "name": "name",
      "outputs": [
        {
          "internalType": "string",
          "name": "",
          "type": "string"
        }
      ],
      "stateMutability": "view",
      "type": "function"
    },
    {
      "inputs": [],
      "name": "standard",
      "outputs": [
        {
          "internalType": "string",
          "name": "",
          "type": "string"
        }
      ],
      "stateMutability": "view",
      "type": "function"
    },
    {
      "inputs": [],
      "name": "symbol",
      "outputs": [
        {
          "internalType": "string",
          "name": "",
          "type": "string"
        }
      ],
      "stateMutability": "view",
      "type": "function"
    },
    {
      "inputs": [],
      "name": "totalSupply",
      "outputs": [
        {
          "internalType": "uint256",
          "name": "",
          "type": "uint256"
        }
      ],
      "stateMutability": "view",
      "type": "function"
    },
    {
      "inputs": [
        {
          "internalType": "address",
          "name": "_to",
          "type": "address"
        },
        {
          "internalType": "uint256",
          "name": "_value",
          "type": "uint256"
        }
      ],
      "name": "transfer",
      "outputs": [
        {
          "internalType": "bool",
          "name": "success",
          "type": "bool"
        }
      ],
      "stateMutability": "nonpayable",
      "type": "function"
    },
    {
      "inputs": [
        {
          "internalType": "address",
          "name": "_from",
          "type": "address"
        },
        {
          "internalType": "address",
          "name": "_to",
          "type": "address"
        },
        {
          "internalType": "uint256",
          "name": "_value",
          "type": "uint256"
        }
      ],
      "name": "transferFrom",
      "outputs": [
        {
          "internalType": "bool",
          "name": "success",
          "type": "bool"
        }
      ],
      "stateMutability": "nonpayable",
      "type": "function"
    },
    {
      "inputs": [
        {
          "internalType": "string",
          "name": "_productName",
          "type": "string"
        },
        {
          "internalType": "string",
          "name": "_descriptors",
          "type": "string"
        },
        {
          "internalType": "string",
          "name": "_ImgUrl",
          "type": "string"
        },
        {
          "internalType": "uint56",
          "name": "_Price",
          "type": "uint56"
        },
        {
          "internalType": "bool",
          "name": "_SallAble",
          "type": "bool"
        }
      ],
      "name": "AddProducts",
      "outputs": [],
      "stateMutability": "nonpayable",
      "type": "function"
    },
    {
      "inputs": [
        {
          "internalType": "uint32",
          "name": "_productId",
          "type": "uint32"
        }
      ],
      "name": "BuyProduct",
      "outputs": [],
      "stateMutability": "nonpayable",
      "type": "function"
    },
    {
      "inputs": [
        {
          "internalType": "uint32",
          "name": "_productId",
          "type": "uint32"
        },
        {
          "internalType": "string",
          "name": "_productName",
          "type": "string"
        },
        {
          "internalType": "string",
          "name": "_descriptors",
          "type": "string"
        },
        {
          "internalType": "string",
          "name": "_ImgUrl",
          "type": "string"
        },
        {
          "internalType": "uint56",
          "name": "_Price",
          "type": "uint56"
        },
        {
          "internalType": "bool",
          "name": "_SallAble",
          "type": "bool"
        }
      ],
      "name": "ChangeProduct",
      "outputs": [],
      "stateMutability": "nonpayable",
      "type": "function"
    },
    {
      "inputs": [
        {
          "internalType": "uint32",
          "name": "_productId",
          "type": "uint32"
        }
      ],
      "name": "DeleteProduct",
      "outputs": [],
      "stateMutability": "nonpayable",
      "type": "function"
    }
  ],
  "bytecode": "0x60c0604052600a6080819052692637b7b8102a37b5b2b760b11b60a09081526200002d9160009190620000da565b506040805180820190915260048082526304c6f6f760e41b60209092019182526200005b91600191620000da565b5060408051808201909152600f8082526e04c6f6f7020546f6b656e2076312e3608c1b60209092019182526200009491600291620000da565b506004805461ffff191690556007805463ffffffff19169055348015620000ba57600080fd5b50621e8480600381905533600090815260056020526040902055620001bd565b828054620000e89062000180565b90600052602060002090601f0160209004810192826200010c576000855562000157565b82601f106200012757805160ff191683800117855562000157565b8280016001018555821562000157579182015b82811115620001575782518255916020019190600101906200013a565b506200016592915062000169565b5090565b5b808211156200016557600081556001016200016a565b6002810460018216806200019557607f821691505b60208210811415620001b757634e487b7160e01b600052602260045260246000fd5b50919050565b611c0280620001cd6000396000f3fe608060405234801561001057600080fd5b50600436106100f55760003560e01c806393a8333e11610097578063b5e1eadd11610066578063b5e1eadd146101d3578063dae2128f146101e6578063dd62ed3e146101f9578063ffb5d2391461020c576100f5565b806393a8333e1461019057806395d89b41146101a5578063a9059cbb146101ad578063b4b87634146101c0576100f5565b806318160ddd116100d357806318160ddd1461014d57806323b872dd146101625780635a3b7e421461017557806370a082311461017d576100f5565b806306fdde03146100fa57806308cf922c14610118578063095ea7b31461012d575b600080fd5b610102610232565b60405161010f919061195f565b60405180910390f35b61012b6101263660046117cd565b6102c0565b005b61014061013b3660046116e4565b6106b5565b60405161010f9190611954565b61015561071f565b60405161010f9190611a5e565b6101406101703660046116a9565b610725565b610102610863565b61015561018b366004611656565b610870565b610198610882565b60405161010f9190611a67565b61010261088e565b6101406101bb3660046116e4565b61089b565b61012b6101ce3660046117b3565b610945565b61012b6101e13660046117b3565b610c4f565b61012b6101f436600461170d565b6110a9565b610155610207366004611677565b611293565b61021f61021a3660046117b3565b6112b0565b60405161010f9796959493929190611a97565b6000805461023f90611b41565b80601f016020809104026020016040519081016040528092919081815260200182805461026b90611b41565b80156102b85780601f1061028d576101008083540402835291602001916102b8565b820191906000526020600020905b81548152906001019060200180831161029b57829003601f168201915b505050505081565b63ffffffff8681166000908152600860209081526040808320815160e08101835281549586168152600160201b9095046001600160a01b0316928501929092526001820180549394939184019161031690611b41565b80601f016020809104026020016040519081016040528092919081815260200182805461034290611b41565b801561038f5780601f106103645761010080835404028352916020019161038f565b820191906000526020600020905b81548152906001019060200180831161037257829003601f168201915b505050505081526020016002820180546103a890611b41565b80601f01602080910402602001604051908101604052809291908181526020018280546103d490611b41565b80156104215780601f106103f657610100808354040283529160200191610421565b820191906000526020600020905b81548152906001019060200180831161040457829003601f168201915b5050505050815260200160038201805461043a90611b41565b80601f016020809104026020016040519081016040528092919081815260200182805461046690611b41565b80156104b35780601f10610488576101008083540402835291602001916104b3565b820191906000526020600020905b81548152906001019060200180831161049657829003601f168201915b50505091835250506004919091015466ffffffffffffff81166020830152600160381b900460ff161515604090910152805190915063ffffffff166105135760405162461bcd60e51b815260040161050a90611a33565b60405180910390fd5b80602001516001600160a01b0316336001600160a01b03161461053557600080fd5b6040805160e081018252825163ffffffff90811682526020808501516001600160a01b039081168285019081528486018c8152606086018c9052608086018b905266ffffffffffffff8a1660a087015288151560c08701528d85166000908152600885529690962085518154925163ffffffff19909316951694909417640100000000600160c01b031916600160201b919092160217825592518051929391926105e592600185019201906114a6565b50606082015180516106019160028401916020909101906114a6565b506080820151805161061d9160038401916020909101906114a6565b5060a08201516004909101805460c0909301511515600160381b0260ff60381b1966ffffffffffffff90931666ffffffffffffff199094169390931791909116919091179055805160208201516040517f857a94a0899a4a352f3f66a1c2e6c388fedfe46f6451319b70abdef9f0fcfa6c926106a49290918a908a908a908a908a90611a97565b60405180910390a150505050505050565b3360008181526006602090815260408083206001600160a01b038716808552925280832085905551919290917f8c5be1e5ebec7d5bd14f71427d1e84f3dd0314c0f7b2291e5b200ac8c7c3b9259061070e908690611a5e565b60405180910390a350600192915050565b60035481565b6001600160a01b03831660009081526005602052604081205482111561074a57600080fd5b6001600160a01b038416600090815260066020908152604080832033845290915290205482111561077a57600080fd5b6001600160a01b038416600090815260056020526040812080548492906107a2908490611b2a565b90915550506001600160a01b038316600090815260056020526040812080548492906107cf908490611b12565b90915550506001600160a01b038416600090815260066020908152604080832033845290915281208054849290610807908490611b2a565b92505081905550826001600160a01b0316846001600160a01b03167fc0d84ce5c7ff9ca21adb0f8436ff3f4951b4bb78c4e2fae2b6837958b3946ffd846040516108519190611a5e565b60405180910390a35060019392505050565b6002805461023f90611b41565b60056020526000908152604090205481565b60075463ffffffff1681565b6001805461023f90611b41565b336000908152600560205260408120548211156108b757600080fd5b33600090815260056020526040812080548492906108d6908490611b2a565b90915550506001600160a01b03831660009081526005602052604081208054849290610903908490611b12565b90915550506040516001600160a01b0384169033907fddf252ad1be2c89b69c2b068fc378daa952ba7f163c4a11628f55a4df523b3ef9061070e908690611a5e565b63ffffffff8181166000908152600860209081526040808320815160e08101835281549586168152600160201b9095046001600160a01b0316928501929092526001820180549394939184019161099b90611b41565b80601f01602080910402602001604051908101604052809291908181526020018280546109c790611b41565b8015610a145780601f106109e957610100808354040283529160200191610a14565b820191906000526020600020905b8154815290600101906020018083116109f757829003601f168201915b50505050508152602001600282018054610a2d90611b41565b80601f0160208091040260200160405190810160405280929190818152602001828054610a5990611b41565b8015610aa65780601f10610a7b57610100808354040283529160200191610aa6565b820191906000526020600020905b815481529060010190602001808311610a8957829003601f168201915b50505050508152602001600382018054610abf90611b41565b80601f0160208091040260200160405190810160405280929190818152602001828054610aeb90611b41565b8015610b385780601f10610b0d57610100808354040283529160200191610b38565b820191906000526020600020905b815481529060010190602001808311610b1b57829003601f168201915b50505091835250506004919091015466ffffffffffffff81166020830152600160381b900460ff161515604090910152805190915063ffffffff16610b8f5760405162461bcd60e51b815260040161050a90611a33565b80602001516001600160a01b0316336001600160a01b031614610bb157600080fd5b63ffffffff8216600090815260086020526040812080546001600160c01b031916815590610be2600183018261152a565b610bf060028301600061152a565b610bfe60038301600061152a565b50600401805467ffffffffffffffff191690556040517f56a9fc6f886ead6bec7ea951dfad2f1cf57b0f2ce1ebe506da80b1791c08be7e90610c439084903390611a78565b60405180910390a15050565b63ffffffff8181166000908152600860209081526040808320815160e08101835281549586168152600160201b9095046001600160a01b03169285019290925260018201805493949391840191610ca590611b41565b80601f0160208091040260200160405190810160405280929190818152602001828054610cd190611b41565b8015610d1e5780601f10610cf357610100808354040283529160200191610d1e565b820191906000526020600020905b815481529060010190602001808311610d0157829003601f168201915b50505050508152602001600282018054610d3790611b41565b80601f0160208091040260200160405190810160405280929190818152602001828054610d6390611b41565b8015610db05780601f10610d8557610100808354040283529160200191610db0565b820191906000526020600020905b815481529060010190602001808311610d9357829003601f168201915b50505050508152602001600382018054610dc990611b41565b80601f0160208091040260200160405190810160405280929190818152602001828054610df590611b41565b8015610e425780601f10610e1757610100808354040283529160200191610e42565b820191906000526020600020905b815481529060010190602001808311610e2557829003601f168201915b50505091835250506004919091015466ffffffffffffff8116602080840191909152600160381b90910460ff161515604090920191909152810151909150336001600160a01b0382161415610ea95760405162461bcd60e51b815260040161050a906119a1565b815163ffffffff16610ecd5760405162461bcd60e51b815260040161050a90611a33565b8160c00151610eee5760405162461bcd60e51b815260040161050a90611972565b610f05818360a0015166ffffffffffffff1661089b565b610f0e57600080fd5b6040805160e081018252835163ffffffff908116825233602080840191825286850151848601908152606080890151908601526080808901519086015260a09788015166ffffffffffffff1697850197909752600060c085018190528884168152600882529490942083518154925163ffffffff19909316931692909217640100000000600160c01b031916600160201b6001600160a01b039092169190910217815593518051919485939092610fcb92600185019201906114a6565b5060608201518051610fe79160028401916020909101906114a6565b50608082015180516110039160038401916020909101906114a6565b5060a0828101516004909201805460c0909401511515600160381b0260ff60381b1966ffffffffffffff90941666ffffffffffffff1990951694909417929092169290921790558251604080850151606086015160808701519487015192517f4f3086bdacf321fe8b089bd59d2295d9708f70a01d41eaafb0fcf5449b8e7daf9561109c958895909433949093909291906000906118cd565b60405180910390a1505050565b60008266ffffffffffffff161180156110ce575062030d408266ffffffffffffff1611155b6110ea5760405162461bcd60e51b815260040161050a906119e4565b6007805463ffffffff1690600061110083611b7c565b82546101009290920a63ffffffff8181021990931691831602179091556007546040805160e0810182529183168083523360208085019182528484018c8152606086018c9052608086018b905266ffffffffffffff8a1660a087015288151560c08701526000848152600883529490942085518154935163ffffffff19909416971696909617640100000000600160c01b031916600160201b6001600160a01b0390931692909202919091178555915180519195509293926111c99260018501929101906114a6565b50606082015180516111e59160028401916020909101906114a6565b50608082015180516112019160038401916020909101906114a6565b5060a08201516004909101805460c0909301511515600160381b0260ff60381b1966ffffffffffffff90931666ffffffffffffff1990941693909317919091169190911790556040517ff816f435385222c7809e87d5ed87fdd0e59420cf39b9c5c05f8c66c418b281ba9061128390839033908a908a908a908a908a90611a97565b60405180910390a1505050505050565b600660209081526000928352604080842090915290825290205481565b6008602052600090815260409020805460018201805463ffffffff831693600160201b9093046001600160a01b03169291906112eb90611b41565b80601f016020809104026020016040519081016040528092919081815260200182805461131790611b41565b80156113645780601f1061133957610100808354040283529160200191611364565b820191906000526020600020905b81548152906001019060200180831161134757829003601f168201915b50505050509080600201805461137990611b41565b80601f01602080910402602001604051908101604052809291908181526020018280546113a590611b41565b80156113f25780601f106113c7576101008083540402835291602001916113f2565b820191906000526020600020905b8154815290600101906020018083116113d557829003601f168201915b50505050509080600301805461140790611b41565b80601f016020809104026020016040519081016040528092919081815260200182805461143390611b41565b80156114805780601f1061145557610100808354040283529160200191611480565b820191906000526020600020905b81548152906001019060200180831161146357829003601f168201915b5050506004909301549192505066ffffffffffffff81169060ff600160381b9091041687565b8280546114b290611b41565b90600052602060002090601f0160209004810192826114d4576000855561151a565b82601f106114ed57805160ff191683800117855561151a565b8280016001018555821561151a579182015b8281111561151a5782518255916020019190600101906114ff565b50611526929150611569565b5090565b50805461153690611b41565b6000825580601f106115485750611566565b601f0160209004906000526020600020908101906115669190611569565b50565b5b80821115611526576000815560010161156a565b80356001600160a01b038116811461159557600080fd5b919050565b8035801515811461159557600080fd5b600082601f8301126115ba578081fd5b813567ffffffffffffffff808211156115d5576115d5611bb6565b604051601f8301601f1916810160200182811182821017156115f9576115f9611bb6565b604052828152848301602001861015611610578384fd5b82602086016020830137918201602001929092529392505050565b803563ffffffff8116811461159557600080fd5b803566ffffffffffffff8116811461159557600080fd5b600060208284031215611667578081fd5b6116708261157e565b9392505050565b60008060408385031215611689578081fd5b6116928361157e565b91506116a06020840161157e565b90509250929050565b6000806000606084860312156116bd578081fd5b6116c68461157e565b92506116d46020850161157e565b9150604084013590509250925092565b600080604083850312156116f6578182fd5b6116ff8361157e565b946020939093013593505050565b600080600080600060a08688031215611724578081fd5b853567ffffffffffffffff8082111561173b578283fd5b61174789838a016115aa565b9650602088013591508082111561175c578283fd5b61176889838a016115aa565b9550604088013591508082111561177d578283fd5b5061178a888289016115aa565b9350506117996060870161163f565b91506117a76080870161159a565b90509295509295909350565b6000602082840312156117c4578081fd5b6116708261162b565b60008060008060008060c087890312156117e5578081fd5b6117ee8761162b565b9550602087013567ffffffffffffffff8082111561180a578283fd5b6118168a838b016115aa565b9650604089013591508082111561182b578283fd5b6118378a838b016115aa565b9550606089013591508082111561184c578283fd5b5061185989828a016115aa565b9350506118686080880161163f565b915061187660a0880161159a565b90509295509295509295565b60008151808452815b818110156118a75760208185018101518683018201520161188b565b818111156118b85782602083870101525b50601f01601f19169290920160200192915050565b6001600160a01b03898116825263ffffffff89166020830152871660408201526101006060820181905260009061190683820189611882565b9050828103608084015261191a8188611882565b905082810360a084015261192e8187611882565b66ffffffffffffff9590951660c0840152505090151560e0909101529695505050505050565b901515815260200190565b6000602082526116706020830184611882565b60208082526015908201527470726f64756374206d6f73742073656c6c41626c6560581b604082015260600190565b60208082526023908201527f70726f64756374206f776e65722063616e277420627579206f776e2050726f646040820152621d58dd60ea1b606082015260800190565b6020808252602f908201527f70726963652063616e206e6f74206d6f7265207468616e20323030303030206f60408201526e72206c657373207468616e206f6e6560881b606082015260800190565b6020808252601190820152701c1c9bd91d58dd081b9bdd08195e1a5cdd607a1b604082015260600190565b90815260200190565b63ffffffff91909116815260200190565b63ffffffff9290921682526001600160a01b0316602082015260400190565b63ffffffff881681526001600160a01b038716602082015260e060408201819052600090611ac790830188611882565b8281036060840152611ad98188611882565b90508281036080840152611aed8187611882565b66ffffffffffffff9590951660a0840152505090151560c09091015295945050505050565b60008219821115611b2557611b25611ba0565b500190565b600082821015611b3c57611b3c611ba0565b500390565b600281046001821680611b5557607f821691505b60208210811415611b7657634e487b7160e01b600052602260045260246000fd5b50919050565b600063ffffffff80831681811415611b9657611b96611ba0565b6001019392505050565b634e487b7160e01b600052601160045260246000fd5b634e487b7160e01b600052604160045260246000fdfea26469706673582212203ba4ac08291b14a8eab50aabb7f5788722d87a3b3aeba6afb33b7bc625788f3864736f6c63430008000033",
  "immutableReferences": {},
  "source": "// SPDX-License-Identifier: MIT\r\npragma solidity >=0.6.0 <0.9.0;\r\nimport \"./LoopToken.sol\";\r\n\r\ncontract Products is LoopToken {\r\n    uint32 public Count = 0;\r\n    struct item {\r\n        uint32 Id;\r\n        address Owner;\r\n        string ProductName;\r\n        string descriptors;\r\n        string ImgUrl;\r\n        uint56 Price;\r\n        bool SellAble;\r\n    }\r\n    mapping(uint32 => item) public items;\r\n\r\n    event _AddProducts(\r\n        uint32 Id,\r\n        address Owner,\r\n        string ProductName,\r\n        string descriptors,\r\n        string ImgUrl,\r\n        uint56 Price,\r\n        bool SellAble\r\n    );\r\n\r\n    event _BuyProduct(\r\n        address Seller,\r\n        uint32 Id,\r\n        address Buyer,\r\n        string ProductName,\r\n        string descriptors,\r\n        string ImgUrl,\r\n        uint56 Price,\r\n        bool SellAble\r\n    );\r\n\r\n    event _ChangeProduct(\r\n        uint32 Id,\r\n        address Owner,\r\n        string ProductName,\r\n        string descriptors,\r\n        string ImgUrl,\r\n        uint56 Price,\r\n        bool SellAble\r\n    );\r\n    event _DeleteProduct(uint32 Id, address Owner);\r\n\r\n    constructor() LoopToken(2000000) {}\r\n\r\n    function AddProducts(\r\n        string memory _productName,\r\n        string memory _descriptors,\r\n        string memory _ImgUrl,\r\n        uint56 _Price,\r\n        bool _SallAble\r\n    ) public {\r\n        require(\r\n            _Price > 0 && _Price <= 200000,\r\n            \"price can not more than 200000 or less than one\"\r\n        );\r\n        Count++;\r\n        uint32 id = Count;\r\n        items[id] = item(\r\n            id,\r\n            msg.sender,\r\n            _productName,\r\n            _descriptors,\r\n            _ImgUrl,\r\n            _Price,\r\n            _SallAble\r\n        );\r\n        emit _AddProducts(\r\n            id,\r\n            msg.sender,\r\n            _productName,\r\n            _descriptors,\r\n            _ImgUrl,\r\n            _Price,\r\n            _SallAble\r\n        );\r\n    }\r\n\r\n    function BuyProduct(uint32 _productId) public {\r\n        item memory selectedProduct = items[_productId];\r\n        address ProductOwner = selectedProduct.Owner;\r\n        require(\r\n            ProductOwner != msg.sender,\r\n            \"product owner can't buy own Product\"\r\n        );\r\n        require(selectedProduct.Id != 0, \"product not exist\");\r\n        require(selectedProduct.SellAble, \"product most sellAble\");\r\n        require(transfer(ProductOwner, selectedProduct.Price));\r\n        selectedProduct = item(\r\n            selectedProduct.Id,\r\n            msg.sender,\r\n            selectedProduct.ProductName,\r\n            selectedProduct.descriptors,\r\n            selectedProduct.ImgUrl,\r\n            selectedProduct.Price,\r\n            false\r\n        );\r\n        items[_productId] = selectedProduct;\r\n        emit _BuyProduct(\r\n            ProductOwner,\r\n            selectedProduct.Id,\r\n            msg.sender,\r\n            selectedProduct.ProductName,\r\n            selectedProduct.descriptors,\r\n            selectedProduct.ImgUrl,\r\n            selectedProduct.Price,\r\n            false\r\n        );\r\n    }\r\n\r\n    function ChangeProduct(\r\n        uint32 _productId,\r\n        string memory _productName,\r\n        string memory _descriptors,\r\n        string memory _ImgUrl,\r\n        uint56 _Price,\r\n        bool _SallAble\r\n    ) public {\r\n        item memory selectedProduct = items[_productId];\r\n        require(selectedProduct.Id != 0, \"product not exist\");\r\n        require(msg.sender == selectedProduct.Owner);\r\n        items[_productId] = item(\r\n            selectedProduct.Id,\r\n            selectedProduct.Owner,\r\n            _productName,\r\n            _descriptors,\r\n            _ImgUrl,\r\n            _Price,\r\n            _SallAble\r\n        );\r\n        emit _ChangeProduct(\r\n            selectedProduct.Id,\r\n            selectedProduct.Owner,\r\n            _productName,\r\n            _descriptors,\r\n            _ImgUrl,\r\n            _Price,\r\n            _SallAble\r\n        );\r\n    }\r\n\r\n    function DeleteProduct(uint32 _productId) public {\r\n        item memory selectedProduct = items[_productId];\r\n        require(selectedProduct.Id != 0, \"product not exist\");\r\n        require(msg.sender == selectedProduct.Owner);\r\n        delete items[_productId];\r\n        emit _DeleteProduct(_productId, msg.sender);\r\n    }\r\n}\r\n",
  "sourcePath": "F:\\truffleWithReactApp\\StackApp\\Truffle\\contracts\\Products.sol",
  "compiler": {
    "name": "solc",
    "version": "0.8.0+commit.c7dfd78e.Emscripten.clang"
  },
  "schemaVersion": "3.4.2",
  "updatedAt": "2021-09-19T05:36:23.024Z",
  "devdoc": {
    "kind": "dev",
    "methods": {},
    "version": 1
  },
  "userdoc": {
    "kind": "user",
    "methods": {},
    "version": 1
  }
}