{
  "contractName": "Products",
  "abi": [
    {
      "inputs": [
        {
          "internalType": "contract LoopToken",
          "name": "_tokenContract",
          "type": "address"
        }
      ],
      "stateMutability": "nonpayable",
      "type": "constructor"
    },
    {
      "anonymous": false,
      "inputs": [
        {
          "indexed": true,
          "internalType": "uint32",
          "name": "Id",
          "type": "uint32"
        },
        {
          "indexed": true,
          "internalType": "address",
          "name": "Owner",
          "type": "address"
        },
        {
          "indexed": false,
          "internalType": "string",
          "name": "ProductName",
          "type": "string"
        },
        {
          "indexed": false,
          "internalType": "string",
          "name": "descriptors",
          "type": "string"
        },
        {
          "indexed": false,
          "internalType": "string",
          "name": "ImgUrl",
          "type": "string"
        },
        {
          "indexed": false,
          "internalType": "uint56",
          "name": "Price",
          "type": "uint56"
        },
        {
          "indexed": false,
          "internalType": "bool",
          "name": "SellAble",
          "type": "bool"
        }
      ],
      "name": "_AddProduct",
      "type": "event"
    },
    {
      "anonymous": false,
      "inputs": [
        {
          "indexed": true,
          "internalType": "address",
          "name": "Seller",
          "type": "address"
        },
        {
          "indexed": true,
          "internalType": "uint32",
          "name": "Id",
          "type": "uint32"
        },
        {
          "indexed": true,
          "internalType": "address",
          "name": "Buyer",
          "type": "address"
        },
        {
          "indexed": false,
          "internalType": "string",
          "name": "ProductName",
          "type": "string"
        },
        {
          "indexed": false,
          "internalType": "string",
          "name": "descriptors",
          "type": "string"
        },
        {
          "indexed": false,
          "internalType": "string",
          "name": "ImgUrl",
          "type": "string"
        },
        {
          "indexed": false,
          "internalType": "uint56",
          "name": "Price",
          "type": "uint56"
        },
        {
          "indexed": false,
          "internalType": "bool",
          "name": "SellAble",
          "type": "bool"
        }
      ],
      "name": "_BuyProduct",
      "type": "event"
    },
    {
      "anonymous": false,
      "inputs": [
        {
          "indexed": true,
          "internalType": "uint32",
          "name": "Id",
          "type": "uint32"
        },
        {
          "indexed": true,
          "internalType": "address",
          "name": "Owner",
          "type": "address"
        },
        {
          "indexed": false,
          "internalType": "string",
          "name": "ProductName",
          "type": "string"
        },
        {
          "indexed": false,
          "internalType": "string",
          "name": "descriptors",
          "type": "string"
        },
        {
          "indexed": false,
          "internalType": "string",
          "name": "ImgUrl",
          "type": "string"
        },
        {
          "indexed": false,
          "internalType": "uint56",
          "name": "Price",
          "type": "uint56"
        },
        {
          "indexed": false,
          "internalType": "bool",
          "name": "SellAble",
          "type": "bool"
        }
      ],
      "name": "_ChangeProduct",
      "type": "event"
    },
    {
      "anonymous": false,
      "inputs": [
        {
          "indexed": false,
          "internalType": "uint32",
          "name": "Id",
          "type": "uint32"
        },
        {
          "indexed": false,
          "internalType": "address",
          "name": "Owner",
          "type": "address"
        }
      ],
      "name": "_DeleteProduct",
      "type": "event"
    },
    {
      "inputs": [],
      "name": "Count",
      "outputs": [
        {
          "internalType": "uint32",
          "name": "",
          "type": "uint32"
        }
      ],
      "stateMutability": "view",
      "type": "function"
    },
    {
      "inputs": [
        {
          "internalType": "uint32",
          "name": "",
          "type": "uint32"
        }
      ],
      "name": "items",
      "outputs": [
        {
          "internalType": "uint32",
          "name": "Id",
          "type": "uint32"
        },
        {
          "internalType": "address",
          "name": "Owner",
          "type": "address"
        },
        {
          "internalType": "string",
          "name": "ProductName",
          "type": "string"
        },
        {
          "internalType": "string",
          "name": "descriptors",
          "type": "string"
        },
        {
          "internalType": "string",
          "name": "ImgUrl",
          "type": "string"
        },
        {
          "internalType": "uint56",
          "name": "Price",
          "type": "uint56"
        },
        {
          "internalType": "bool",
          "name": "SellAble",
          "type": "bool"
        }
      ],
      "stateMutability": "view",
      "type": "function"
    },
    {
      "inputs": [],
      "name": "tokenContract",
      "outputs": [
        {
          "internalType": "contract LoopToken",
          "name": "",
          "type": "address"
        }
      ],
      "stateMutability": "view",
      "type": "function"
    },
    {
      "inputs": [
        {
          "internalType": "string",
          "name": "_productName",
          "type": "string"
        },
        {
          "internalType": "string",
          "name": "_descriptors",
          "type": "string"
        },
        {
          "internalType": "string",
          "name": "_ImgUrl",
          "type": "string"
        },
        {
          "internalType": "uint56",
          "name": "_Price",
          "type": "uint56"
        },
        {
          "internalType": "bool",
          "name": "_SallAble",
          "type": "bool"
        }
      ],
      "name": "AddProduct",
      "outputs": [],
      "stateMutability": "nonpayable",
      "type": "function"
    },
    {
      "inputs": [
        {
          "internalType": "uint32",
          "name": "_productId",
          "type": "uint32"
        }
      ],
      "name": "BuyProduct",
      "outputs": [],
      "stateMutability": "nonpayable",
      "type": "function"
    },
    {
      "inputs": [
        {
          "internalType": "uint32",
          "name": "_productId",
          "type": "uint32"
        },
        {
          "internalType": "string",
          "name": "_productName",
          "type": "string"
        },
        {
          "internalType": "string",
          "name": "_descriptors",
          "type": "string"
        },
        {
          "internalType": "string",
          "name": "_ImgUrl",
          "type": "string"
        },
        {
          "internalType": "uint56",
          "name": "_Price",
          "type": "uint56"
        },
        {
          "internalType": "bool",
          "name": "_SallAble",
          "type": "bool"
        }
      ],
      "name": "ChangeProduct",
      "outputs": [],
      "stateMutability": "nonpayable",
      "type": "function"
    },
    {
      "inputs": [
        {
          "internalType": "uint32",
          "name": "_productId",
          "type": "uint32"
        }
      ],
      "name": "DeleteProduct",
      "outputs": [],
      "stateMutability": "nonpayable",
      "type": "function"
    }
  ],
  "bytecode": "0x60806040526000805463ffffffff1916905534801561001d57600080fd5b5060405161179138038061179183398101604081905261003c9161006c565b600080546001600160a01b0390921664010000000002600160201b600160c01b031990921691909117905561009a565b60006020828403121561007d578081fd5b81516001600160a01b0381168114610093578182fd5b9392505050565b6116e8806100a96000396000f3fe608060405234801561001057600080fd5b506004361061007d5760003560e01c806393a8333e1161005b57806393a8333e146100c8578063b4b87634146100dd578063b5e1eadd146100f0578063ffb5d239146101035761007d565b806308cf922c14610082578063398a3dfc1461009757806355a373d6146100aa575b600080fd5b6100956100903660046111fd565b610129565b005b6100956100a5366004611139565b610537565b6100b2610724565b6040516100bf91906113ce565b60405180910390f35b6100d061073a565b6040516100bf9190611563565b6100956100eb3660046111e3565b610746565b6100956100fe3660046111e3565b610a52565b6101166101113660046111e3565b610d1b565b6040516100bf9796959493929190611593565b63ffffffff8681166000908152600160208181526040808420815160e08101835281549687168152600160201b9096046001600160a01b0316928601929092529181018054939493919284019161017f90611623565b80601f01602080910402602001604051908101604052809291908181526020018280546101ab90611623565b80156101f85780601f106101cd576101008083540402835291602001916101f8565b820191906000526020600020905b8154815290600101906020018083116101db57829003601f168201915b5050505050815260200160028201805461021190611623565b80601f016020809104026020016040519081016040528092919081815260200182805461023d90611623565b801561028a5780601f1061025f5761010080835404028352916020019161028a565b820191906000526020600020905b81548152906001019060200180831161026d57829003601f168201915b505050505081526020016003820180546102a390611623565b80601f01602080910402602001604051908101604052809291908181526020018280546102cf90611623565b801561031c5780601f106102f15761010080835404028352916020019161031c565b820191906000526020600020905b8154815290600101906020018083116102ff57829003601f168201915b50505091835250506004919091015466ffffffffffffff81166020830152600160381b900460ff161515604090910152805190915063ffffffff1661037c5760405162461bcd60e51b815260040161037390611538565b60405180910390fd5b80602001516001600160a01b0316336001600160a01b03161461039e57600080fd5b6040805160e081018252825163ffffffff90811682526020808501516001600160a01b039081168285019081528486018c8152606086018c9052608086018b905266ffffffffffffff8a1660a087015288151560c08701528d85166000908152600180865297902086518154935163ffffffff19909416961695909517640100000000600160c01b031916600160201b929093169190910291909117835551805193949293610454938501929190910190610f12565b5060608201518051610470916002840191602090910190610f12565b506080820151805161048c916003840191602090910190610f12565b5060a08201516004909101805460c0909301511515600160381b0260ff60381b1966ffffffffffffff90931666ffffffffffffff199094169390931791909116919091179055602081015181516040516001600160a01b039092169163ffffffff909116907f857a94a0899a4a352f3f66a1c2e6c388fedfe46f6451319b70abdef9f0fcfa6c90610526908a908a908a908a908a906113e2565b60405180910390a350505050505050565b60008266ffffffffffffff1611801561055c575062030d408266ffffffffffffff1611155b6105785760405162461bcd60e51b8152600401610373906114e9565b6000805463ffffffff16908061058d8361165e565b82546101009290920a63ffffffff818102199093169183160217909155600080546040805160e0810182529184168083523360208085019182528484018d8152606086018d9052608086018c905266ffffffffffffff8b1660a087015289151560c087015283875260018083529490962085518154935163ffffffff19909416981697909717640100000000600160c01b031916600160201b6001600160a01b03909316929092029190911786559351805191965092949361065493928501920190610f12565b5060608201518051610670916002840191602090910190610f12565b506080820151805161068c916003840191602090910190610f12565b5060a08201516004909101805460c0909301511515600160381b0260ff60381b1966ffffffffffffff90931666ffffffffffffff199094169390931791909116919091179055604051339063ffffffff8316907f97013e53b6ac0e96d3d6f1452873d88978c9d8186d145fd88101d1f49fb8c8bc90610714908a908a908a908a908a906113e2565b60405180910390a3505050505050565b600054600160201b90046001600160a01b031681565b60005463ffffffff1681565b63ffffffff8181166000908152600160208181526040808420815160e08101835281549687168152600160201b9096046001600160a01b0316928601929092529181018054939493919284019161079c90611623565b80601f01602080910402602001604051908101604052809291908181526020018280546107c890611623565b80156108155780601f106107ea57610100808354040283529160200191610815565b820191906000526020600020905b8154815290600101906020018083116107f857829003601f168201915b5050505050815260200160028201805461082e90611623565b80601f016020809104026020016040519081016040528092919081815260200182805461085a90611623565b80156108a75780601f1061087c576101008083540402835291602001916108a7565b820191906000526020600020905b81548152906001019060200180831161088a57829003601f168201915b505050505081526020016003820180546108c090611623565b80601f01602080910402602001604051908101604052809291908181526020018280546108ec90611623565b80156109395780601f1061090e57610100808354040283529160200191610939565b820191906000526020600020905b81548152906001019060200180831161091c57829003601f168201915b50505091835250506004919091015466ffffffffffffff81166020830152600160381b900460ff161515604090910152805190915063ffffffff166109905760405162461bcd60e51b815260040161037390611538565b80602001516001600160a01b0316336001600160a01b0316146109b257600080fd5b63ffffffff82166000908152600160208190526040822080546001600160c01b031916815591906109e590830182610f96565b6109f3600283016000610f96565b610a01600383016000610f96565b50600401805467ffffffffffffffff191690556040517f56a9fc6f886ead6bec7ea951dfad2f1cf57b0f2ce1ebe506da80b1791c08be7e90610a469084903390611574565b60405180910390a15050565b63ffffffff811660009081526001602052604090208054600160201b90046001600160a01b031633811415610a995760405162461bcd60e51b8152600401610373906114a6565b815463ffffffff16610abd5760405162461bcd60e51b815260040161037390611538565b6004820154600160381b900460ff16610ae85760405162461bcd60e51b815260040161037390611477565b60005482546004848101546040516323b872dd60e01b81526001600160a01b03600160201b958690048116956323b872dd95610b3a953395929091049092169266ffffffffffffff90911691016113a2565b602060405180830381600087803b158015610b5457600080fd5b505af1158015610b68573d6000803e3d6000fd5b505050506040513d601f19601f82011682018060405250810190610b8c9190611116565b610b9557600080fd5b8154600160201b338102640100000000600160c01b03199283161780855560048501805460ff60381b1916905563ffffffff8087166000908152600160208190526040909120805463ffffffff1916929093169190911780835586548490046001600160a01b0316909302929093169190911781558184018054859383019190610c1e90611623565b610c29929190610fd5565b506002820181600201908054610c3e90611623565b610c49929190610fd5565b506003820181600301908054610c5e90611623565b610c69929190610fd5565b5060049182018054918301805466ffffffffffffff191666ffffffffffffff93841617808255915460ff600160381b918290041615150260ff60381b19909216919091179055835491840154604051339363ffffffff16926001600160a01b038616927f4f3086bdacf321fe8b089bd59d2295d9708f70a01d41eaafb0fcf5449b8e7daf92610d0e9260018a019260028b019260038c0192919091169060009061143e565b60405180910390a4505050565b60016020819052600091825260409091208054918101805463ffffffff841693600160201b90046001600160a01b0316929190610d5790611623565b80601f0160208091040260200160405190810160405280929190818152602001828054610d8390611623565b8015610dd05780601f10610da557610100808354040283529160200191610dd0565b820191906000526020600020905b815481529060010190602001808311610db357829003601f168201915b505050505090806002018054610de590611623565b80601f0160208091040260200160405190810160405280929190818152602001828054610e1190611623565b8015610e5e5780601f10610e3357610100808354040283529160200191610e5e565b820191906000526020600020905b815481529060010190602001808311610e4157829003601f168201915b505050505090806003018054610e7390611623565b80601f0160208091040260200160405190810160405280929190818152602001828054610e9f90611623565b8015610eec5780601f10610ec157610100808354040283529160200191610eec565b820191906000526020600020905b815481529060010190602001808311610ecf57829003601f168201915b5050506004909301549192505066ffffffffffffff81169060ff600160381b9091041687565b828054610f1e90611623565b90600052602060002090601f016020900481019282610f405760008555610f86565b82601f10610f5957805160ff1916838001178555610f86565b82800160010185558215610f86579182015b82811115610f86578251825591602001919060010190610f6b565b50610f92929150611050565b5090565b508054610fa290611623565b6000825580601f10610fb45750610fd2565b601f016020900490600052602060002090810190610fd29190611050565b50565b828054610fe190611623565b90600052602060002090601f0160209004810192826110035760008555610f86565b82601f106110145780548555610f86565b82800160010185558215610f8657600052602060002091601f016020900482015b82811115610f86578254825591600101919060010190611035565b5b80821115610f925760008155600101611051565b600082601f830112611075578081fd5b813567ffffffffffffffff808211156110905761109061168e565b604051601f8301601f1916810160200182811182821017156110b4576110b461168e565b6040528281528483016020018610156110cb578384fd5b82602086016020830137918201602001929092529392505050565b803563ffffffff811681146110fa57600080fd5b919050565b803566ffffffffffffff811681146110fa57600080fd5b600060208284031215611127578081fd5b8151611132816116a4565b9392505050565b600080600080600060a08688031215611150578081fd5b853567ffffffffffffffff80821115611167578283fd5b61117389838a01611065565b96506020880135915080821115611188578283fd5b61119489838a01611065565b955060408801359150808211156111a9578283fd5b506111b688828901611065565b9350506111c5606087016110ff565b915060808601356111d5816116a4565b809150509295509295909350565b6000602082840312156111f4578081fd5b611132826110e6565b60008060008060008060c08789031215611215578081fd5b61121e876110e6565b9550602087013567ffffffffffffffff8082111561123a578283fd5b6112468a838b01611065565b9650604089013591508082111561125b578283fd5b6112678a838b01611065565b9550606089013591508082111561127c578283fd5b5061128989828a01611065565b935050611298608088016110ff565b915060a08701356112a8816116a4565b809150509295509295509295565b60008151808452815b818110156112db576020818501810151868301820152016112bf565b818111156112ec5782602083870101525b50601f01601f19169290920160200192915050565b80546000906002810460018083168061131b57607f831692505b602080841082141561133b57634e487b7160e01b86526022600452602486fd5b611345848961161a565b828015611359576001811461136a57611395565b60ff19871682528282019750611395565b6113738961160e565b60005b8781101561138f57815484820152908601908401611376565b83019850505b5050505050505092915050565b6001600160a01b03938416815291909216602082015266ffffffffffffff909116604082015260600190565b6001600160a01b0391909116815260200190565b600060a082526113f560a08301886112b6565b828103602084015261140781886112b6565b9050828103604084015261141b81876112b6565b66ffffffffffffff95909516606084015250509015156080909101529392505050565b600060a0825261145160a0830188611301565b82810360208401526114638188611301565b9050828103604084015261141b8187611301565b60208082526015908201527470726f64756374206d6f73742073656c6c41626c6560581b604082015260600190565b60208082526023908201527f70726f64756374206f776e65722063616e277420627579206f776e2050726f646040820152621d58dd60ea1b606082015260800190565b6020808252602f908201527f70726963652063616e206e6f74206d6f7265207468616e20323030303030206f60408201526e72206c657373207468616e206f6e6560881b606082015260800190565b6020808252601190820152701c1c9bd91d58dd081b9bdd08195e1a5cdd607a1b604082015260600190565b63ffffffff91909116815260200190565b63ffffffff9290921682526001600160a01b0316602082015260400190565b63ffffffff881681526001600160a01b038716602082015260e0604082018190526000906115c3908301886112b6565b82810360608401526115d581886112b6565b905082810360808401526115e981876112b6565b66ffffffffffffff9590951660a0840152505090151560c09091015295945050505050565b60009081526020902090565b90815260200190565b60028104600182168061163757607f821691505b6020821081141561165857634e487b7160e01b600052602260045260246000fd5b50919050565b600063ffffffff8083168181141561168457634e487b7160e01b83526011600452602483fd5b6001019392505050565b634e487b7160e01b600052604160045260246000fd5b8015158114610fd257600080fdfea2646970667358221220ac075ca46739775f5a44e41e59982e50c6a4c0c2b9e93cf7a46032b3cd2020e064736f6c63430008000033",
  "immutableReferences": {},
  "source": "// SPDX-License-Identifier: MIT\r\npragma solidity >=0.6.0 <0.9.0;\r\nimport \"./LoopToken.sol\";\r\n\r\ncontract Products {\r\n    uint32 public Count = 0;\r\n    LoopToken public tokenContract;\r\n    struct item {\r\n        uint32 Id;\r\n        address Owner;\r\n        string ProductName;\r\n        string descriptors;\r\n        string ImgUrl;\r\n        uint56 Price;\r\n        bool SellAble;\r\n    }\r\n    mapping(uint32 => item) public items;\r\n\r\n    event _AddProduct(\r\n        uint32 indexed Id,\r\n        address indexed Owner,\r\n        string ProductName,\r\n        string descriptors,\r\n        string ImgUrl,\r\n        uint56 Price,\r\n        bool SellAble\r\n    );\r\n\r\n    event _BuyProduct(\r\n        address indexed Seller,\r\n        uint32 indexed Id,\r\n        address indexed Buyer,\r\n        string ProductName,\r\n        string descriptors,\r\n        string ImgUrl,\r\n        uint56 Price,\r\n        bool SellAble\r\n    );\r\n\r\n    event _ChangeProduct(\r\n        uint32 indexed Id,\r\n        address indexed Owner,\r\n        string ProductName,\r\n        string descriptors,\r\n        string ImgUrl,\r\n        uint56 Price,\r\n        bool SellAble\r\n    );\r\n    event _DeleteProduct(uint32 Id, address Owner);\r\n\r\n    constructor(LoopToken _tokenContract) {\r\n        tokenContract = _tokenContract;\r\n    }\r\n\r\n    function AddProduct(\r\n        string memory _productName,\r\n        string memory _descriptors,\r\n        string memory _ImgUrl,\r\n        uint56 _Price,\r\n        bool _SallAble\r\n    ) public {\r\n        require(\r\n            _Price > 0 && _Price <= 200000,\r\n            \"price can not more than 200000 or less than one\"\r\n        );\r\n        Count++;\r\n        uint32 id = Count;\r\n        items[id] = item(\r\n            id,\r\n            msg.sender,\r\n            _productName,\r\n            _descriptors,\r\n            _ImgUrl,\r\n            _Price,\r\n            _SallAble\r\n        );\r\n        emit _AddProduct(\r\n            id,\r\n            msg.sender,\r\n            _productName,\r\n            _descriptors,\r\n            _ImgUrl,\r\n            _Price,\r\n            _SallAble\r\n        );\r\n    }\r\n\r\n    function BuyProduct(uint32 _productId) public {\r\n        item storage selectedProduct = items[_productId];\r\n\r\n        address ProductOwner = selectedProduct.Owner;\r\n        require(\r\n            selectedProduct.Owner != msg.sender,\r\n            \"product owner can't buy own Product\"\r\n        );\r\n        require(selectedProduct.Id != 0, \"product not exist\");\r\n        require(selectedProduct.SellAble, \"product most sellAble\");\r\n        require(\r\n            tokenContract.transferFrom(\r\n                msg.sender,\r\n                selectedProduct.Owner,\r\n                selectedProduct.Price\r\n            )\r\n        );\r\n        selectedProduct.Owner = msg.sender;\r\n        selectedProduct.SellAble = false;\r\n        items[_productId] = selectedProduct;\r\n        emit _BuyProduct(\r\n            ProductOwner,\r\n            selectedProduct.Id,\r\n            msg.sender,\r\n            selectedProduct.ProductName,\r\n            selectedProduct.descriptors,\r\n            selectedProduct.ImgUrl,\r\n            selectedProduct.Price,\r\n            false\r\n        );\r\n    }\r\n\r\n    function ChangeProduct(\r\n        uint32 _productId,\r\n        string memory _productName,\r\n        string memory _descriptors,\r\n        string memory _ImgUrl,\r\n        uint56 _Price,\r\n        bool _SallAble\r\n    ) public {\r\n        item memory selectedProduct = items[_productId];\r\n        require(selectedProduct.Id != 0, \"product not exist\");\r\n        require(msg.sender == selectedProduct.Owner);\r\n        items[_productId] = item(\r\n            selectedProduct.Id,\r\n            selectedProduct.Owner,\r\n            _productName,\r\n            _descriptors,\r\n            _ImgUrl,\r\n            _Price,\r\n            _SallAble\r\n        );\r\n        emit _ChangeProduct(\r\n            selectedProduct.Id,\r\n            selectedProduct.Owner,\r\n            _productName,\r\n            _descriptors,\r\n            _ImgUrl,\r\n            _Price,\r\n            _SallAble\r\n        );\r\n    }\r\n\r\n    function DeleteProduct(uint32 _productId) public {\r\n        item memory selectedProduct = items[_productId];\r\n        require(selectedProduct.Id != 0, \"product not exist\");\r\n        require(msg.sender == selectedProduct.Owner);\r\n        delete items[_productId];\r\n        emit _DeleteProduct(_productId, msg.sender);\r\n    }\r\n}\r\n",
  "sourcePath": "F:\\truffleWithReactApp\\StackApp\\truffle\\contracts\\Products.sol",
  "compiler": {
    "name": "solc",
    "version": "0.8.0+commit.c7dfd78e.Emscripten.clang"
  },
  "schemaVersion": "3.4.2",
  "updatedAt": "2021-09-25T09:17:39.401Z",
  "devdoc": {
    "kind": "dev",
    "methods": {},
    "version": 1
  },
  "userdoc": {
    "kind": "user",
    "methods": {},
    "version": 1
  }
}