{
  "contractName": "Products",
  "abi": [
    {
      "inputs": [
        {
          "internalType": "contract LoopToken",
          "name": "_tokenContract",
          "type": "address"
        }
      ],
      "stateMutability": "nonpayable",
      "type": "constructor"
    },
    {
      "inputs": [
        {
          "internalType": "address",
          "name": "",
          "type": "address"
        }
      ],
      "name": "items",
      "outputs": [
        {
          "internalType": "uint32",
          "name": "Id",
          "type": "uint32"
        },
        {
          "internalType": "address",
          "name": "Owner",
          "type": "address"
        },
        {
          "internalType": "string",
          "name": "ProductName",
          "type": "string"
        },
        {
          "internalType": "string",
          "name": "descriptors",
          "type": "string"
        },
        {
          "internalType": "string",
          "name": "Imgurl",
          "type": "string"
        },
        {
          "internalType": "uint56",
          "name": "Price",
          "type": "uint56"
        }
      ],
      "stateMutability": "view",
      "type": "function"
    },
    {
      "inputs": [],
      "name": "tokenContract",
      "outputs": [
        {
          "internalType": "contract LoopToken",
          "name": "",
          "type": "address"
        }
      ],
      "stateMutability": "view",
      "type": "function"
    },
    {
      "inputs": [
        {
          "internalType": "string",
          "name": "_productName",
          "type": "string"
        },
        {
          "internalType": "string",
          "name": "_descriptors",
          "type": "string"
        },
        {
          "internalType": "string",
          "name": "_Imgurl",
          "type": "string"
        },
        {
          "internalType": "uint56",
          "name": "_Price",
          "type": "uint56"
        }
      ],
      "name": "AddProducts",
      "outputs": [],
      "stateMutability": "nonpayable",
      "type": "function"
    }
  ],
  "bytecode": "0x60806040526000805463ffffffff60a01b1916905534801561002057600080fd5b5060405161089338038061089383398101604081905261003f91610072565b60008054336001600160a01b031991821617909155600180549091166001600160a01b03929092169190911790556100a0565b600060208284031215610083578081fd5b81516001600160a01b0381168114610099578182fd5b9392505050565b6107e4806100af6000396000f3fe608060405234801561001057600080fd5b50600436106100415760003560e01c806355a373d614610046578063baa9544414610064578063d321411c14610079575b600080fd5b61004e61009e565b60405161005b9190610658565b60405180910390f35b61007761007236600461056b565b6100ad565b005b61008c61008736600461053d565b610239565b60405161005b969594939291906106ba565b6001546001600160a01b031681565b60008166ffffffffffffff161180156100d2575062030d408166ffffffffffffff1611155b6100f75760405162461bcd60e51b81526004016100ee9061066c565b60405180910390fd5b60008054600160a01b900463ffffffff1681601461011483610768565b82546101009290920a63ffffffff8181021990931691831602179091556040805160c08101825283831681523360208083018281528385018c8152606085018c9052608085018b905266ffffffffffffff8a1660a08601526000938452600283529490922083518154935163ffffffff19909416961695909517640100000000600160c01b0319166401000000006001600160a01b03909316929092029190911784559151805194955090936101d09260018501920190610423565b50606082015180516101ec916002840191602090910190610423565b5060808201518051610208916003840191602090910190610423565b5060a091909101516004909101805466ffffffffffffff191666ffffffffffffff9092169190911790555050505050565b6002602052600090815260409020805460018201805463ffffffff8316936401000000009093046001600160a01b03169291906102759061072d565b80601f01602080910402602001604051908101604052809291908181526020018280546102a19061072d565b80156102ee5780601f106102c3576101008083540402835291602001916102ee565b820191906000526020600020905b8154815290600101906020018083116102d157829003601f168201915b5050505050908060020180546103039061072d565b80601f016020809104026020016040519081016040528092919081815260200182805461032f9061072d565b801561037c5780601f106103515761010080835404028352916020019161037c565b820191906000526020600020905b81548152906001019060200180831161035f57829003601f168201915b5050505050908060030180546103919061072d565b80601f01602080910402602001604051908101604052809291908181526020018280546103bd9061072d565b801561040a5780601f106103df5761010080835404028352916020019161040a565b820191906000526020600020905b8154815290600101906020018083116103ed57829003601f168201915b5050506004909301549192505066ffffffffffffff1686565b82805461042f9061072d565b90600052602060002090601f0160209004810192826104515760008555610497565b82601f1061046a57805160ff1916838001178555610497565b82800160010185558215610497579182015b8281111561049757825182559160200191906001019061047c565b506104a39291506104a7565b5090565b5b808211156104a357600081556001016104a8565b600082601f8301126104cc578081fd5b813567ffffffffffffffff808211156104e7576104e7610798565b604051601f8301601f19168101602001828111828210171561050b5761050b610798565b604052828152848301602001861015610522578384fd5b82602086016020830137918201602001929092529392505050565b60006020828403121561054e578081fd5b81356001600160a01b0381168114610564578182fd5b9392505050565b60008060008060808587031215610580578283fd5b843567ffffffffffffffff80821115610597578485fd5b6105a3888389016104bc565b955060208701359150808211156105b8578485fd5b6105c4888389016104bc565b945060408701359150808211156105d9578384fd5b506105e6878288016104bc565b925050606085013566ffffffffffffff81168114610602578182fd5b939692955090935050565b60008151808452815b8181101561063257602081850181015186830182015201610616565b818111156106435782602083870101525b50601f01601f19169290920160200192915050565b6001600160a01b0391909116815260200190565b6020808252602e908201527f70726963652063616e206e6f7420626967207468616e20323030303030206f7260408201526d206c657373207468616e206f6e6560901b606082015260800190565b63ffffffff871681526001600160a01b038616602082015260c0604082018190526000906106ea9083018761060d565b82810360608401526106fc818761060d565b90508281036080840152610710818661060d565b91505066ffffffffffffff831660a0830152979650505050505050565b60028104600182168061074157607f821691505b6020821081141561076257634e487b7160e01b600052602260045260246000fd5b50919050565b600063ffffffff8083168181141561078e57634e487b7160e01b83526011600452602483fd5b6001019392505050565b634e487b7160e01b600052604160045260246000fdfea26469706673582212200762ce2198eca0d3f0695247ceb63ef0ebc197d02c7b7a59209cb95072d4d7ad64736f6c63430008000033",
  "immutableReferences": {},
  "source": "// SPDX-License-Identifier: MIT\r\npragma solidity >=0.6.0 <0.9.0;\r\nimport \"./LoopToken.sol\";\r\n\r\ncontract Products {\r\n    address Admin;\r\n    uint32 count = 0;\r\n    LoopToken public tokenContract;\r\n    struct item {\r\n        uint32 Id;\r\n        address Owner;\r\n        string ProductName;\r\n        string descriptors;\r\n        string Imgurl;\r\n        uint56 Price;\r\n    }\r\n    mapping(address => item) public items;\r\n\r\n    constructor(LoopToken _tokenContract) {\r\n        Admin = msg.sender;\r\n        tokenContract = _tokenContract;\r\n    }\r\n\r\n    function AddProducts(\r\n        string memory _productName,\r\n        string memory _descriptors,\r\n        string memory _Imgurl,\r\n        uint56 _Price\r\n    ) public {\r\n        require(\r\n            _Price > 0 && _Price <= 200000,\r\n            \"price can not big than 200000 or less than one\"\r\n        );\r\n        uint32 id = count++;\r\n        items[msg.sender] = item(\r\n            id,\r\n            msg.sender,\r\n            _productName,\r\n            _descriptors,\r\n            _Imgurl,\r\n            _Price\r\n        );\r\n    }\r\n}\r\n",
  "sourcePath": "F:\\truffleWithReactApp\\StackApp\\Truffle\\contracts\\Products.sol",
  "compiler": {
    "name": "solc",
    "version": "0.8.0+commit.c7dfd78e.Emscripten.clang"
  },
  "schemaVersion": "3.4.2",
  "updatedAt": "2021-09-09T05:15:35.395Z",
  "devdoc": {
    "kind": "dev",
    "methods": {},
    "version": 1
  },
  "userdoc": {
    "kind": "user",
    "methods": {},
    "version": 1
  }
}